:100000000C9456000C9468000C9468000C946800E2
:100010000C9468000C9468000C9468000C946800C0
:100020000C9468000C9468000C9468000C946800B0
:100030000C9468000C9468000C9468000C946800A0
:100040000C9468000C9468000C9468000C94680090
:100050000C9468000C9468000C9468000C94680080
:100060000C9468000C9468000C9468000C94680070
:100070000C9468000C9468000C9468000C94680060
:100080000C9436020C9468000C9468000C94680080
:100090000C9468000C9468000C9468000C94680040
:1000A0000C9468000C9468000C94680011241FBE26
:1000B000CFEFDAE0DEBFCDBF21E0A0E0B1E001C0CC
:1000C0001D92A832B207E1F70E94F8010C94F805DE
:1000D0000C94000088EE93E0909389008093880050
:1000E000E1E8F0E080818B7F808380818260808383
:1000F00080818E7F80838081806180838081886021
:100100008083E0E8F0E0808182608083808181608C
:10011000808380818860808380818B7F8083279A21
:1001200008958AEF90E09093990080939800E1E918
:10013000F0E080818460808380818D7F80838081F6
:100140008160808380818F7E8083808188608083CE
:10015000E0E9F0E080818D7F808380818E7F8083E5
:10016000E1E7F0E08081826080837894089561E027
:1001700081E00E9407030895CF92DF92EF92FF92F1
:1001800023E333E343E75FE360910C0170910D01DA
:1001900080910E0190910F010E9467056B017C0117
:1001A0006091160170911701072E000C880B990BB6
:1001B0000E94D60490589B01AC010E94C70320E026
:1001C00030E040E058E30E94670520ED3CEC4CE451
:1001D0005DE30E9467059B01AC01C701B6010E9467
:1001E000C70360930C0170930D0180930E019093EF
:1001F0000F01FF90EF90DF90CF900895CF92DF92A4
:10020000EF92FF9260911E0170911F01072E000C6A
:10021000880B990B0E94D604905820E030E04AE702
:1002200053E40E9467052AED3FE049E450E40E9450
:10023000670520E030E044EB5AE40E943304C090AC
:100240000801D0900901E0900A01F0900B01C092E2
:100250000401D0920501E0920601F09207012FE619
:1002600032E143E85CE30E9467059B01AC01C701F2
:10027000B6010E94C703609308017093090180933F
:100280000A0190930B0120910001309101014091EE
:100290000201509103010E94C703A70196010E9429
:1002A000C60323E333E343E75FE30E9467056093FC
:1002B0000001709301018093020190930301FF906C
:1002C000EF90DF90CF9008952F9A892B39F08E9A76
:1002D0008F986E9A769A6A9A729808958E988F9AE5
:1002E0006E9A76986A9A729A08958F929F92AF92B8
:1002F000BF92CF92DF92EF92FF92CF93DF930E9453
:10030000BC006B017C010E94FE009B01AC01C70197
:10031000B6010E94C7036B017C0120E030E040EF92
:1003200051E40E9467054B015C012DEC3CEC4CEC68
:100330005DE3C701B6010E94670520E030E0A90136
:100340000E94C7039B01AC01C501B4010E94C70311
:100350004B015C0120E030E04CE852E4C701B601FB
:100360000E9467059B01AC01C501B4010E94C7034F
:100370004B015C01C1E0D0E020E030E0A901C70101
:10038000B6010E946205181614F0C0E0D0E0CE015C
:100390000E94640175016401E894F7F820E030E000
:1003A00040E45FE3C701B6010E94620518164CF0F5
:1003B000C0921201D0921301E0921401F092150143
:1003C0000CC080E090E0A0E4BFE380931201909322
:1003D0001301A0931401B0931501DF91CF91FF9009
:1003E000EF90DF90CF90BF90AF909F908F90089547
:1003F000E1E6F0E0C0E8C08310820E94B7000E94EE
:100400006A000E949100C5BFC5BF869A879A2FE7F0
:100410008AE196E0215080409040E1F700C0000062
:1004200008E810E0CCE8D0E0809110019091110133
:10043000892BD1F30E9475011092110110921001C5
:10044000F8016081718180E090E00E94D4042091E5
:1004500012013091130140911401509115010E9435
:1004600067050E94A50479836883DECF1F920F92EF
:100470000FB60F9211242F933F934F935F936F9377
:100480007F938F939F93AF93BF93EF93FF9380914D
:10049000100190911101892B51F486E191E00E94A5
:1004A000740381E090E09093110180931001FF911B
:1004B000EF91BF91AF919F918F917F916F915F91DC
:1004C0004F913F912F910F900FBE0F901F90189555
:1004D000589A599A5A9A8CE08093B800E9E6F0E06D
:1004E00080818062808380818F7E8083EA9A789485
:1004F000089584E88093BC00ECEBF0E080818823D1
:10050000ECF78091BB00089520E030E0ECEBF0E0E8
:100510008081882334F02F5F3F4F293E83E03807E6
:10052000B9F781E0283E334009F480E008958093D4
:10053000BB0084E88093BC000E948402882319F0E9
:100540008091B900887F0895CF93DF93C82FD62F6D
:1005500084EA8093BC000E948402811104C094E963
:100560009093BC001CC0DD2361F08C2F880F8F5F3F
:100570000E949702883481F484E98093BC0080E073
:100580000EC08C2F880F0E949702803239F484E9C4
:100590008093BC0080E003C081E001C081E0DF9176
:1005A000CF910895CF93DF93C82FD62F60E00E949C
:1005B000A402882379F08D2F0E949702882351F09E
:1005C00084E98093BC0061E08C2F0E94A402811119
:1005D0000E947902DF91CF910895CF93DF93C62FC8
:1005E000D42F60E00E94A402882371F08C2F0E9417
:1005F0009702882349F08D2F0E949702882321F0CB
:1006000084E98093BC0081E0DF91CF910895CF937E
:10061000DF93843008F060C0643008F05FC0D62FEC
:10062000C82F0E9468022FE58AEE90E0215080409A
:100630009040E1F700C0000065E789E60E94D20221
:10064000883609F04DC041E06BE689E60E94ED0274
:100650004C2F440F440F440F6CE189E60E94ED02D9
:100660004D2F440F440F440F6BE189E60E94ED02C9
:1006700042E067E389E60E94ED0240E062E08EE13D
:100680000E94ED0240E067E389E60E94ED024EE140
:1006900064E389E60E94ED0241E067E689E60E9494
:1006A000ED024DE164E289E60E94ED024EE965E269
:1006B00089E60E94ED0243E066E289E60E94ED02CF
:1006C00046E967E289E60E94ED0240E26AE689E6D1
:1006D0000E94ED0281E005C080E003C080E001C01F
:1006E00080E0DF91CF910895CF92DF92EF92FF9259
:1006F0001F93CF93DF93CDB7DEB764970FB6F8940F
:10070000DEBF0FBECDBF6C01CE0101967C011EE4A1
:10071000612F89E60E94D202F70181937F01115077
:100720001A33B1F78F859889F601958384838F8179
:1007300098859387828789819A81918B808B89891B
:100740009A899383828389859A85918780878B8113
:100750009C81978786878B899C89918380838B85F1
:100760009C85978386838D819E819587848781E090
:1007700064960FB6F894DEBF0FBECDBFDF91CF9168
:100780001F91FF90EF90DF90CF9008955058BB27B6
:10079000AA270E94DE030C9428050E941A0538F04F
:1007A0000E94210520F039F49F3F19F426F40C949F
:1007B00017050EF4E095E7FB0C941105E92F0E9454
:1007C000390558F3BA17620773078407950720F0B5
:1007D00079F4A6F50C945B050EF4E0950B2EBA2F78
:1007E000A02D0B01B90190010C01CA01A001112437
:1007F000FF27591B99F0593F50F4503E68F11A16E3
:10080000F040A22F232F342F4427585FF3CF469573
:1008100037952795A795F0405395C9F77EF41F1695
:10082000BA0B620B730B840BBAF09150A1F0FF0F5F
:10083000BB1F661F771F881FC2F70EC0BA0F621F4B
:10084000731F841F48F4879577956795B795F7953B
:100850009E3F08F0B0CF9395880F08F09927EE0FD0
:100860009795879508950E9447040C9428050E9447
:10087000210558F00E941A0540F029F45F3F29F045
:100880000C94110551110C945C050C9417050E94F1
:10089000390568F39923B1F3552391F3951B550B53
:1008A000BB27AA2762177307840738F09F5F5F4F43
:1008B000220F331F441FAA1FA9F335D00E2E3AF082
:1008C000E0E832D091505040E695001CCAF72BD09A
:1008D000FE2F29D0660F771F881FBB1F26173707EB
:1008E0004807AB07B0E809F0BB0B802DBF01FF271D
:1008F00093585F4F3AF09E3F510578F00C941105E4
:100900000C945C055F3FE4F3983ED4F386957795AD
:100910006795B795F7959F5FC9F7880F911D9695D5
:10092000879597F90895E1E0660F771F881FBB1F31
:10093000621773078407BA0720F0621B730B840BDE
:10094000BA0BEE1F88F7E09508950E94410588F0E4
:100950009F5798F0B92F9927B751B0F0E1F0660F83
:10096000771F881F991F1AF0BA95C9F714C0B130C4
:1009700091F00E945B05B1E008950C945B05672F30
:10098000782F8827B85F39F0B93FCCF386957795F3
:100990006795B395D9F73EF49095809570956195DC
:1009A0007F4F8F4F9F4F0895E89409C097FB3EF407
:1009B00090958095709561957F4F8F4F9F4F9923AC
:1009C000A9F0F92F96E9BB279395F695879577952A
:1009D0006795B795F111F8CFFAF4BB0F11F460FFEA
:1009E0001BC06F5F7F4F8F4F9F4F16C0882311F042
:1009F00096E911C0772321F09EE8872F762F05C056
:100A0000662371F096E8862F70E060E02AF09A95F0
:100A1000660F771F881FDAF7880F9695879597F9E5
:100A2000089597F99F6780E870E060E008959FEF70
:100A300080EC089500240A94161617061806090675
:100A4000089500240A941216130614060506089544
:100A5000092E0394000C11F4882352F0BB0F40F4CC
:100A6000BF2B11F460FF04C06F5F7F4F8F4F9F4F0C
:100A7000089557FD9058440F551F59F05F3F71F08E
:100A80004795880F97FB991F61F09F3F79F08795F5
:100A90000895121613061406551FF2CF4695F1DF7E
:100AA00008C0161617061806991FF1CF869571050E
:100AB000610508940895E894BB2766277727CB0142
:100AC00097F908950E94D40508F48FEF08950E94C5
:100AD0007A050C9428050E941A0538F00E94210519
:100AE00020F0952311F00C9411050C941705112496
:100AF0000C945C050E94390570F3959FC1F3950F26
:100B000050E0551F629FF001729FBB27F00DB11D91
:100B1000639FAA27F00DB11DAA1F649F6627B00D21
:100B2000A11D661F829F2227B00DA11D621F739F0A
:100B3000B00DA11D621F839FA00D611D221F749F18
:100B40003327A00D611D231F849F600D211D822F5F
:100B5000762F6A2F11249F5750409AF0F1F0882386
:100B60004AF0EE0FFF1FBB1F661F771F881F9150B3
:100B70005040A9F79E3F510580F00C9411050C944C
:100B80005C055F3FE4F3983ED4F3869577956795CF
:100B9000B795F795E7959F5FC1F7FE2B880F911DDD
:100BA0009695879597F90895990F0008550FAA0B08
:100BB000E0E8FEEF16161706E807F907C0F0121670
:100BC0001306E407F50798F0621B730B840B950B73
:100BD00039F40A2661F0232B242B252B21F40895C8
:100BE0000A2609F4A140A6958FEF811D811D089565
:040BF000F894FFCFA7
:00000001FF
